{
	"expensesplit.sol": {
		"Splitwise": {
			"abi": [
				{
					"constant": false,
					"inputs": [
						{
							"internalType": "address",
							"name": "debtor",
							"type": "address"
						},
						{
							"internalType": "address",
							"name": "creditor",
							"type": "address"
						},
						{
							"internalType": "int32",
							"name": "amount",
							"type": "int32"
						}
					],
					"name": "addDebt",
					"outputs": [],
					"payable": false,
					"stateMutability": "nonpayable",
					"type": "function"
				},
				{
					"constant": false,
					"inputs": [
						{
							"internalType": "address",
							"name": "creditor",
							"type": "address"
						},
						{
							"internalType": "int32",
							"name": "amount",
							"type": "int32"
						}
					],
					"name": "add_IOU",
					"outputs": [],
					"payable": false,
					"stateMutability": "nonpayable",
					"type": "function"
				},
				{
					"constant": true,
					"inputs": [
						{
							"internalType": "address",
							"name": "",
							"type": "address"
						},
						{
							"internalType": "address",
							"name": "",
							"type": "address"
						}
					],
					"name": "debts",
					"outputs": [
						{
							"internalType": "int32",
							"name": "",
							"type": "int32"
						}
					],
					"payable": false,
					"stateMutability": "view",
					"type": "function"
				},
				{
					"constant": true,
					"inputs": [],
					"name": "getUsers",
					"outputs": [
						{
							"internalType": "address[]",
							"name": "ret",
							"type": "address[]"
						}
					],
					"payable": false,
					"stateMutability": "view",
					"type": "function"
				},
				{
					"constant": true,
					"inputs": [
						{
							"internalType": "address",
							"name": "debtor",
							"type": "address"
						},
						{
							"internalType": "address",
							"name": "creditor",
							"type": "address"
						}
					],
					"name": "lookup",
					"outputs": [
						{
							"internalType": "int32",
							"name": "ret",
							"type": "int32"
						}
					],
					"payable": false,
					"stateMutability": "view",
					"type": "function"
				},
				{
					"constant": true,
					"inputs": [
						{
							"internalType": "uint256",
							"name": "",
							"type": "uint256"
						}
					],
					"name": "users",
					"outputs": [
						{
							"internalType": "address",
							"name": "",
							"type": "address"
						}
					],
					"payable": false,
					"stateMutability": "view",
					"type": "function"
				}
			],
			"devdoc": {
				"methods": {}
			},
			"evm": {
				"assembly": "    /* \"expensesplit.sol\":27:1248  contract Splitwise{\r... */\n  mstore(0x40, 0x80)\n  callvalue\n    /* \"--CODEGEN--\":8:17   */\n  dup1\n    /* \"--CODEGEN--\":5:7   */\n  iszero\n  tag_1\n  jumpi\n    /* \"--CODEGEN--\":30:31   */\n  0x00\n    /* \"--CODEGEN--\":27:28   */\n  dup1\n    /* \"--CODEGEN--\":20:32   */\n  revert\n    /* \"--CODEGEN--\":5:7   */\ntag_1:\n    /* \"expensesplit.sol\":27:1248  contract Splitwise{\r... */\n  pop\n  dataSize(sub_0)\n  dup1\n  dataOffset(sub_0)\n  0x00\n  codecopy\n  0x00\n  return\nstop\n\nsub_0: assembly {\n        /* \"expensesplit.sol\":27:1248  contract Splitwise{\r... */\n      mstore(0x40, 0x80)\n      callvalue\n        /* \"--CODEGEN--\":8:17   */\n      dup1\n        /* \"--CODEGEN--\":5:7   */\n      iszero\n      tag_1\n      jumpi\n        /* \"--CODEGEN--\":30:31   */\n      0x00\n        /* \"--CODEGEN--\":27:28   */\n      dup1\n        /* \"--CODEGEN--\":20:32   */\n      revert\n        /* \"--CODEGEN--\":5:7   */\n    tag_1:\n        /* \"expensesplit.sol\":27:1248  contract Splitwise{\r... */\n      pop\n      jumpi(tag_2, lt(calldatasize, 0x04))\n      shr(0xe0, calldataload(0x00))\n      dup1\n      0xce8e3e\n      eq\n      tag_3\n      jumpi\n      dup1\n      0x365b98b2\n      eq\n      tag_4\n      jumpi\n      dup1\n      0x4ac1c33d\n      eq\n      tag_5\n      jumpi\n      dup1\n      0x713584a6\n      eq\n      tag_6\n      jumpi\n      dup1\n      0xada187c4\n      eq\n      tag_7\n      jumpi\n      dup1\n      0xfe95a268\n      eq\n      tag_8\n      jumpi\n    tag_2:\n      0x00\n      dup1\n      revert\n        /* \"expensesplit.sol\":1030:1237  function getUsers() public view returns (address[] memory ret){\r... */\n    tag_3:\n      tag_9\n      tag_10\n      jump\t// in\n    tag_9:\n      mload(0x40)\n      dup1\n      dup1\n      0x20\n      add\n      dup3\n      dup2\n      sub\n      dup3\n      mstore\n      dup4\n      dup2\n      dup2\n      mload\n      dup2\n      mstore\n      0x20\n      add\n      swap2\n      pop\n      dup1\n      mload\n      swap1\n      0x20\n      add\n      swap1\n      0x20\n      mul\n      dup1\n      dup4\n      dup4\n        /* \"--CODEGEN--\":23:24   */\n      0x00\n        /* \"--CODEGEN--\":8:108   */\n    tag_11:\n        /* \"--CODEGEN--\":33:36   */\n      dup4\n        /* \"--CODEGEN--\":30:31   */\n      dup2\n        /* \"--CODEGEN--\":27:37   */\n      lt\n        /* \"--CODEGEN--\":8:108   */\n      iszero\n      tag_13\n      jumpi\n        /* \"--CODEGEN--\":99:100   */\n      dup1\n        /* \"--CODEGEN--\":94:97   */\n      dup3\n        /* \"--CODEGEN--\":90:101   */\n      add\n        /* \"--CODEGEN--\":84:102   */\n      mload\n        /* \"--CODEGEN--\":80:81   */\n      dup2\n        /* \"--CODEGEN--\":75:78   */\n      dup5\n        /* \"--CODEGEN--\":71:82   */\n      add\n        /* \"--CODEGEN--\":64:103   */\n      mstore\n        /* \"--CODEGEN--\":52:54   */\n      0x20\n        /* \"--CODEGEN--\":49:50   */\n      dup2\n        /* \"--CODEGEN--\":45:55   */\n      add\n        /* \"--CODEGEN--\":40:55   */\n      swap1\n      pop\n        /* \"--CODEGEN--\":8:108   */\n      jump(tag_11)\n    tag_13:\n        /* \"--CODEGEN--\":12:26   */\n      pop\n        /* \"expensesplit.sol\":1030:1237  function getUsers() public view returns (address[] memory ret){\r... */\n      pop\n      pop\n      pop\n      swap1\n      pop\n      add\n      swap3\n      pop\n      pop\n      pop\n      mload(0x40)\n      dup1\n      swap2\n      sub\n      swap1\n      return\n        /* \"expensesplit.sol\":122:144  address[] public users */\n    tag_4:\n      tag_14\n      0x04\n      dup1\n      calldatasize\n      sub\n        /* \"--CODEGEN--\":13:15   */\n      0x20\n        /* \"--CODEGEN--\":8:11   */\n      dup2\n        /* \"--CODEGEN--\":5:16   */\n      lt\n        /* \"--CODEGEN--\":2:4   */\n      iszero\n      tag_15\n      jumpi\n        /* \"--CODEGEN--\":29:30   */\n      0x00\n        /* \"--CODEGEN--\":26:27   */\n      dup1\n        /* \"--CODEGEN--\":19:31   */\n      revert\n        /* \"--CODEGEN--\":2:4   */\n    tag_15:\n        /* \"expensesplit.sol\":122:144  address[] public users */\n      dup2\n      add\n      swap1\n      dup1\n      dup1\n      calldataload\n      swap1\n      0x20\n      add\n      swap1\n      swap3\n      swap2\n      swap1\n      pop\n      pop\n      pop\n      tag_16\n      jump\t// in\n    tag_14:\n      mload(0x40)\n      dup1\n      dup3\n      0xffffffffffffffffffffffffffffffffffffffff\n      and\n      0xffffffffffffffffffffffffffffffffffffffff\n      and\n      dup2\n      mstore\n      0x20\n      add\n      swap2\n      pop\n      pop\n      mload(0x40)\n      dup1\n      swap2\n      sub\n      swap1\n      return\n        /* \"expensesplit.sol\":54:113  mapping(address => mapping (address => int32)) public debts */\n    tag_5:\n      tag_17\n      0x04\n      dup1\n      calldatasize\n      sub\n        /* \"--CODEGEN--\":13:15   */\n      0x40\n        /* \"--CODEGEN--\":8:11   */\n      dup2\n        /* \"--CODEGEN--\":5:16   */\n      lt\n        /* \"--CODEGEN--\":2:4   */\n      iszero\n      tag_18\n      jumpi\n        /* \"--CODEGEN--\":29:30   */\n      0x00\n        /* \"--CODEGEN--\":26:27   */\n      dup1\n        /* \"--CODEGEN--\":19:31   */\n      revert\n        /* \"--CODEGEN--\":2:4   */\n    tag_18:\n        /* \"expensesplit.sol\":54:113  mapping(address => mapping (address => int32)) public debts */\n      dup2\n      add\n      swap1\n      dup1\n      dup1\n      calldataload\n      0xffffffffffffffffffffffffffffffffffffffff\n      and\n      swap1\n      0x20\n      add\n      swap1\n      swap3\n      swap2\n      swap1\n      dup1\n      calldataload\n      0xffffffffffffffffffffffffffffffffffffffff\n      and\n      swap1\n      0x20\n      add\n      swap1\n      swap3\n      swap2\n      swap1\n      pop\n      pop\n      pop\n      tag_19\n      jump\t// in\n    tag_17:\n      mload(0x40)\n      dup1\n      dup3\n      0x03\n      signextend\n      0x03\n      signextend\n      dup2\n      mstore\n      0x20\n      add\n      swap2\n      pop\n      pop\n      mload(0x40)\n      dup1\n      swap2\n      sub\n      swap1\n      return\n        /* \"expensesplit.sol\":161:294  function lookup(address debtor, address creditor) public view returns (int32 ret){\r... */\n    tag_6:\n      tag_20\n      0x04\n      dup1\n      calldatasize\n      sub\n        /* \"--CODEGEN--\":13:15   */\n      0x40\n        /* \"--CODEGEN--\":8:11   */\n      dup2\n        /* \"--CODEGEN--\":5:16   */\n      lt\n        /* \"--CODEGEN--\":2:4   */\n      iszero\n      tag_21\n      jumpi\n        /* \"--CODEGEN--\":29:30   */\n      0x00\n        /* \"--CODEGEN--\":26:27   */\n      dup1\n        /* \"--CODEGEN--\":19:31   */\n      revert\n        /* \"--CODEGEN--\":2:4   */\n    tag_21:\n        /* \"expensesplit.sol\":161:294  function lookup(address debtor, address creditor) public view returns (int32 ret){\r... */\n      dup2\n      add\n      swap1\n      dup1\n      dup1\n      calldataload\n      0xffffffffffffffffffffffffffffffffffffffff\n      and\n      swap1\n      0x20\n      add\n      swap1\n      swap3\n      swap2\n      swap1\n      dup1\n      calldataload\n      0xffffffffffffffffffffffffffffffffffffffff\n      and\n      swap1\n      0x20\n      add\n      swap1\n      swap3\n      swap2\n      swap1\n      pop\n      pop\n      pop\n      tag_22\n      jump\t// in\n    tag_20:\n      mload(0x40)\n      dup1\n      dup3\n      0x03\n      signextend\n      0x03\n      signextend\n      dup2\n      mstore\n      0x20\n      add\n      swap2\n      pop\n      pop\n      mload(0x40)\n      dup1\n      swap2\n      sub\n      swap1\n      return\n        /* \"expensesplit.sol\":302:417  function add_IOU(address creditor, int32 amount) public{\r... */\n    tag_7:\n      tag_23\n      0x04\n      dup1\n      calldatasize\n      sub\n        /* \"--CODEGEN--\":13:15   */\n      0x40\n        /* \"--CODEGEN--\":8:11   */\n      dup2\n        /* \"--CODEGEN--\":5:16   */\n      lt\n        /* \"--CODEGEN--\":2:4   */\n      iszero\n      tag_24\n      jumpi\n        /* \"--CODEGEN--\":29:30   */\n      0x00\n        /* \"--CODEGEN--\":26:27   */\n      dup1\n        /* \"--CODEGEN--\":19:31   */\n      revert\n        /* \"--CODEGEN--\":2:4   */\n    tag_24:\n        /* \"expensesplit.sol\":302:417  function add_IOU(address creditor, int32 amount) public{\r... */\n      dup2\n      add\n      swap1\n      dup1\n      dup1\n      calldataload\n      0xffffffffffffffffffffffffffffffffffffffff\n      and\n      swap1\n      0x20\n      add\n      swap1\n      swap3\n      swap2\n      swap1\n      dup1\n      calldataload\n      0x03\n      signextend\n      swap1\n      0x20\n      add\n      swap1\n      swap3\n      swap2\n      swap1\n      pop\n      pop\n      pop\n      tag_25\n      jump\t// in\n    tag_23:\n      stop\n        /* \"expensesplit.sol\":425:617  function addDebt(address debtor, address creditor , int32 amount) public{\r... */\n    tag_8:\n      tag_26\n      0x04\n      dup1\n      calldatasize\n      sub\n        /* \"--CODEGEN--\":13:15   */\n      0x60\n        /* \"--CODEGEN--\":8:11   */\n      dup2\n        /* \"--CODEGEN--\":5:16   */\n      lt\n        /* \"--CODEGEN--\":2:4   */\n      iszero\n      tag_27\n      jumpi\n        /* \"--CODEGEN--\":29:30   */\n      0x00\n        /* \"--CODEGEN--\":26:27   */\n      dup1\n        /* \"--CODEGEN--\":19:31   */\n      revert\n        /* \"--CODEGEN--\":2:4   */\n    tag_27:\n        /* \"expensesplit.sol\":425:617  function addDebt(address debtor, address creditor , int32 amount) public{\r... */\n      dup2\n      add\n      swap1\n      dup1\n      dup1\n      calldataload\n      0xffffffffffffffffffffffffffffffffffffffff\n      and\n      swap1\n      0x20\n      add\n      swap1\n      swap3\n      swap2\n      swap1\n      dup1\n      calldataload\n      0xffffffffffffffffffffffffffffffffffffffff\n      and\n      swap1\n      0x20\n      add\n      swap1\n      swap3\n      swap2\n      swap1\n      dup1\n      calldataload\n      0x03\n      signextend\n      swap1\n      0x20\n      add\n      swap1\n      swap3\n      swap2\n      swap1\n      pop\n      pop\n      pop\n      tag_28\n      jump\t// in\n    tag_26:\n      stop\n        /* \"expensesplit.sol\":1030:1237  function getUsers() public view returns (address[] memory ret){\r... */\n    tag_10:\n        /* \"expensesplit.sol\":1071:1091  address[] memory ret */\n      0x60\n        /* \"expensesplit.sol\":1123:1128  users */\n      0x01\n        /* \"expensesplit.sol\":1123:1135  users.length */\n      dup1\n      sload\n      swap1\n      pop\n        /* \"expensesplit.sol\":1109:1136  new address[](users.length) */\n      mload(0x40)\n      swap1\n      dup1\n      dup3\n      mstore\n      dup1\n      0x20\n      mul\n      0x20\n      add\n      dup3\n      add\n      0x40\n      mstore\n      dup1\n      iszero\n      tag_30\n      jumpi\n      dup2\n      0x20\n      add\n        /* \"--CODEGEN--\":29:31   */\n      0x20\n        /* \"--CODEGEN--\":21:27   */\n      dup3\n        /* \"--CODEGEN--\":17:32   */\n      mul\n        /* \"--CODEGEN--\":117:121   */\n      dup1\n        /* \"--CODEGEN--\":105:115   */\n      codesize\n        /* \"--CODEGEN--\":97:103   */\n      dup4\n        /* \"--CODEGEN--\":88:122   */\n      codecopy\n        /* \"--CODEGEN--\":148:152   */\n      dup1\n        /* \"--CODEGEN--\":140:146   */\n      dup3\n        /* \"--CODEGEN--\":136:153   */\n      add\n        /* \"--CODEGEN--\":126:153   */\n      swap2\n      pop\n        /* \"--CODEGEN--\":0:157   */\n      pop\n        /* \"expensesplit.sol\":1109:1136  new address[](users.length) */\n      swap1\n      pop\n    tag_30:\n      pop\n        /* \"expensesplit.sol\":1103:1136  ret = new address[](users.length) */\n      swap1\n      pop\n        /* \"expensesplit.sol\":1152:1158  uint i */\n      0x00\n        /* \"expensesplit.sol\":1161:1162  0 */\n      dup1\n        /* \"expensesplit.sol\":1152:1162  uint i = 0 */\n      swap1\n      pop\n        /* \"expensesplit.sol\":1147:1230  for (uint i = 0; i < users.length; i++){\r... */\n    tag_31:\n        /* \"expensesplit.sol\":1168:1173  users */\n      0x01\n        /* \"expensesplit.sol\":1168:1180  users.length */\n      dup1\n      sload\n      swap1\n      pop\n        /* \"expensesplit.sol\":1164:1165  i */\n      dup2\n        /* \"expensesplit.sol\":1164:1180  i < users.length */\n      lt\n        /* \"expensesplit.sol\":1147:1230  for (uint i = 0; i < users.length; i++){\r... */\n      iszero\n      tag_32\n      jumpi\n        /* \"expensesplit.sol\":1210:1215  users */\n      0x01\n        /* \"expensesplit.sol\":1216:1217  i */\n      dup2\n        /* \"expensesplit.sol\":1210:1218  users[i] */\n      dup2\n      sload\n      dup2\n      lt\n      tag_34\n      jumpi\n      invalid\n    tag_34:\n      swap1\n      0x00\n      mstore\n      keccak256(0x00, 0x20)\n      add\n      0x00\n      swap1\n      sload\n      swap1\n      0x0100\n      exp\n      swap1\n      div\n      0xffffffffffffffffffffffffffffffffffffffff\n      and\n        /* \"expensesplit.sol\":1201:1204  ret */\n      dup3\n        /* \"expensesplit.sol\":1205:1206  i */\n      dup3\n        /* \"expensesplit.sol\":1201:1207  ret[i] */\n      dup2\n      mload\n      dup2\n      lt\n      tag_36\n      jumpi\n      invalid\n    tag_36:\n      0x20\n      mul\n      0x20\n      add\n      add\n        /* \"expensesplit.sol\":1201:1218  ret[i] = users[i] */\n      swap1\n      0xffffffffffffffffffffffffffffffffffffffff\n      and\n      swap1\n      dup2\n      0xffffffffffffffffffffffffffffffffffffffff\n      and\n      dup2\n      mstore\n      pop\n      pop\n        /* \"expensesplit.sol\":1182:1185  i++ */\n      dup1\n      dup1\n      0x01\n      add\n      swap2\n      pop\n      pop\n        /* \"expensesplit.sol\":1147:1230  for (uint i = 0; i < users.length; i++){\r... */\n      jump(tag_31)\n    tag_32:\n      pop\n        /* \"expensesplit.sol\":1030:1237  function getUsers() public view returns (address[] memory ret){\r... */\n      swap1\n      jump\t// out\n        /* \"expensesplit.sol\":122:144  address[] public users */\n    tag_16:\n      0x01\n      dup2\n      dup2\n      sload\n      dup2\n      lt\n      tag_37\n      jumpi\n      invalid\n    tag_37:\n      swap1\n      0x00\n      mstore\n      keccak256(0x00, 0x20)\n      add\n      0x00\n      swap2\n      pop\n      sload\n      swap1\n      0x0100\n      exp\n      swap1\n      div\n      0xffffffffffffffffffffffffffffffffffffffff\n      and\n      dup2\n      jump\t// out\n        /* \"expensesplit.sol\":54:113  mapping(address => mapping (address => int32)) public debts */\n    tag_19:\n      mstore(0x20, 0x00)\n      dup2\n      0x00\n      mstore\n      mstore(0x20, keccak256(0x00, 0x40))\n      dup1\n      0x00\n      mstore\n      keccak256(0x00, 0x40)\n      0x00\n      swap2\n      pop\n      swap2\n      pop\n      swap1\n      sload\n      swap1\n      0x0100\n      exp\n      swap1\n      div\n      0x03\n      signextend\n      dup2\n      jump\t// out\n        /* \"expensesplit.sol\":161:294  function lookup(address debtor, address creditor) public view returns (int32 ret){\r... */\n    tag_22:\n        /* \"expensesplit.sol\":232:241  int32 ret */\n      0x00\n        /* \"expensesplit.sol\":261:266  debts */\n      dup1\n        /* \"expensesplit.sol\":261:274  debts[debtor] */\n      0x00\n        /* \"expensesplit.sol\":267:273  debtor */\n      dup5\n        /* \"expensesplit.sol\":261:274  debts[debtor] */\n      0xffffffffffffffffffffffffffffffffffffffff\n      and\n      0xffffffffffffffffffffffffffffffffffffffff\n      and\n      dup2\n      mstore\n      0x20\n      add\n      swap1\n      dup2\n      mstore\n      0x20\n      add\n      0x00\n      keccak256\n        /* \"expensesplit.sol\":261:284  debts[debtor][creditor] */\n      0x00\n        /* \"expensesplit.sol\":275:283  creditor */\n      dup4\n        /* \"expensesplit.sol\":261:284  debts[debtor][creditor] */\n      0xffffffffffffffffffffffffffffffffffffffff\n      and\n      0xffffffffffffffffffffffffffffffffffffffff\n      and\n      dup2\n      mstore\n      0x20\n      add\n      swap1\n      dup2\n      mstore\n      0x20\n      add\n      0x00\n      keccak256\n      0x00\n      swap1\n      sload\n      swap1\n      0x0100\n      exp\n      swap1\n      div\n      0x03\n      signextend\n        /* \"expensesplit.sol\":255:284  ret = debts[debtor][creditor] */\n      swap1\n      pop\n        /* \"expensesplit.sol\":161:294  function lookup(address debtor, address creditor) public view returns (int32 ret){\r... */\n      swap3\n      swap2\n      pop\n      pop\n      jump\t// out\n        /* \"expensesplit.sol\":302:417  function add_IOU(address creditor, int32 amount) public{\r... */\n    tag_25:\n        /* \"expensesplit.sol\":370:407  addDebt(msg.sender, creditor, amount) */\n      tag_41\n        /* \"expensesplit.sol\":378:388  msg.sender */\n      caller\n        /* \"expensesplit.sol\":390:398  creditor */\n      dup4\n        /* \"expensesplit.sol\":400:406  amount */\n      dup4\n        /* \"expensesplit.sol\":370:377  addDebt */\n      tag_28\n        /* \"expensesplit.sol\":370:407  addDebt(msg.sender, creditor, amount) */\n      jump\t// in\n    tag_41:\n        /* \"expensesplit.sol\":302:417  function add_IOU(address creditor, int32 amount) public{\r... */\n      pop\n      pop\n      jump\t// out\n        /* \"expensesplit.sol\":425:617  function addDebt(address debtor, address creditor , int32 amount) public{\r... */\n    tag_28:\n        /* \"expensesplit.sol\":537:543  amount */\n      dup1\n        /* \"expensesplit.sol\":510:515  debts */\n      0x00\n        /* \"expensesplit.sol\":510:523  debts[debtor] */\n      dup1\n        /* \"expensesplit.sol\":516:522  debtor */\n      dup6\n        /* \"expensesplit.sol\":510:523  debts[debtor] */\n      0xffffffffffffffffffffffffffffffffffffffff\n      and\n      0xffffffffffffffffffffffffffffffffffffffff\n      and\n      dup2\n      mstore\n      0x20\n      add\n      swap1\n      dup2\n      mstore\n      0x20\n      add\n      0x00\n      keccak256\n        /* \"expensesplit.sol\":510:533  debts[debtor][creditor] */\n      0x00\n        /* \"expensesplit.sol\":524:532  creditor */\n      dup5\n        /* \"expensesplit.sol\":510:533  debts[debtor][creditor] */\n      0xffffffffffffffffffffffffffffffffffffffff\n      and\n      0xffffffffffffffffffffffffffffffffffffffff\n      and\n      dup2\n      mstore\n      0x20\n      add\n      swap1\n      dup2\n      mstore\n      0x20\n      add\n      0x00\n      keccak256\n      0x00\n        /* \"expensesplit.sol\":510:543  debts[debtor][creditor] += amount */\n      dup3\n      dup3\n      dup3\n      swap1\n      sload\n      swap1\n      0x0100\n      exp\n      swap1\n      div\n      0x03\n      signextend\n      add\n      swap3\n      pop\n      0x0100\n      exp\n      dup2\n      sload\n      dup2\n      0xffffffff\n      mul\n      not\n      and\n      swap1\n      dup4\n      0x03\n      signextend\n      0xffffffff\n      and\n      mul\n      or\n      swap1\n      sstore\n      pop\n        /* \"expensesplit.sol\":556:576  addToUsers(creditor) */\n      tag_43\n        /* \"expensesplit.sol\":567:575  creditor */\n      dup3\n        /* \"expensesplit.sol\":556:566  addToUsers */\n      tag_44\n        /* \"expensesplit.sol\":556:576  addToUsers(creditor) */\n      jump\t// in\n    tag_43:\n        /* \"expensesplit.sol\":589:607  addToUsers(debtor) */\n      tag_45\n        /* \"expensesplit.sol\":600:606  debtor */\n      dup4\n        /* \"expensesplit.sol\":589:599  addToUsers */\n      tag_44\n        /* \"expensesplit.sol\":589:607  addToUsers(debtor) */\n      jump\t// in\n    tag_45:\n        /* \"expensesplit.sol\":425:617  function addDebt(address debtor, address creditor , int32 amount) public{\r... */\n      pop\n      pop\n      pop\n      jump\t// out\n        /* \"expensesplit.sol\":625:827  function addToUsers(address add) private{\r... */\n    tag_44:\n        /* \"expensesplit.sol\":683:689  uint i */\n      0x00\n        /* \"expensesplit.sol\":692:693  0 */\n      dup1\n        /* \"expensesplit.sol\":683:693  uint i = 0 */\n      swap1\n      pop\n        /* \"expensesplit.sol\":678:792  for (uint i = 0; i < users.length; i++){\r... */\n    tag_47:\n        /* \"expensesplit.sol\":699:704  users */\n      0x01\n        /* \"expensesplit.sol\":699:711  users.length */\n      dup1\n      sload\n      swap1\n      pop\n        /* \"expensesplit.sol\":695:696  i */\n      dup2\n        /* \"expensesplit.sol\":695:711  i < users.length */\n      lt\n        /* \"expensesplit.sol\":678:792  for (uint i = 0; i < users.length; i++){\r... */\n      iszero\n      tag_48\n      jumpi\n        /* \"expensesplit.sol\":748:751  add */\n      dup2\n        /* \"expensesplit.sol\":736:751  users[i] == add */\n      0xffffffffffffffffffffffffffffffffffffffff\n      and\n        /* \"expensesplit.sol\":736:741  users */\n      0x01\n        /* \"expensesplit.sol\":742:743  i */\n      dup3\n        /* \"expensesplit.sol\":736:744  users[i] */\n      dup2\n      sload\n      dup2\n      lt\n      tag_50\n      jumpi\n      invalid\n    tag_50:\n      swap1\n      0x00\n      mstore\n      keccak256(0x00, 0x20)\n      add\n      0x00\n      swap1\n      sload\n      swap1\n      0x0100\n      exp\n      swap1\n      div\n      0xffffffffffffffffffffffffffffffffffffffff\n      and\n        /* \"expensesplit.sol\":736:751  users[i] == add */\n      0xffffffffffffffffffffffffffffffffffffffff\n      and\n      eq\n        /* \"expensesplit.sol\":732:777  if (users[i] == add)\r... */\n      iszero\n      tag_52\n      jumpi\n        /* \"expensesplit.sol\":770:777  return; */\n      pop\n      jump(tag_46)\n        /* \"expensesplit.sol\":732:777  if (users[i] == add)\r... */\n    tag_52:\n        /* \"expensesplit.sol\":713:716  i++ */\n      dup1\n      dup1\n      0x01\n      add\n      swap2\n      pop\n      pop\n        /* \"expensesplit.sol\":678:792  for (uint i = 0; i < users.length; i++){\r... */\n      jump(tag_47)\n    tag_48:\n      pop\n        /* \"expensesplit.sol\":802:807  users */\n      0x01\n        /* \"expensesplit.sol\":813:816  add */\n      dup2\n        /* \"expensesplit.sol\":802:817  users.push(add) */\n      swap1\n      dup1\n        /* \"--CODEGEN--\":39:40   */\n      0x01\n        /* \"--CODEGEN--\":33:36   */\n      dup2\n        /* \"--CODEGEN--\":27:37   */\n      sload\n        /* \"--CODEGEN--\":23:41   */\n      add\n        /* \"--CODEGEN--\":57:67   */\n      dup1\n        /* \"--CODEGEN--\":52:55   */\n      dup3\n        /* \"--CODEGEN--\":45:68   */\n      sstore\n        /* \"--CODEGEN--\":79:89   */\n      dup1\n        /* \"--CODEGEN--\":72:89   */\n      swap2\n      pop\n        /* \"--CODEGEN--\":0:93   */\n      pop\n        /* \"expensesplit.sol\":802:817  users.push(add) */\n      swap1\n      0x01\n      dup3\n      sub\n      swap1\n      0x00\n      mstore\n      keccak256(0x00, 0x20)\n      add\n      0x00\n      swap1\n      swap2\n      swap3\n      swap1\n      swap2\n      swap1\n      swap2\n      0x0100\n      exp\n      dup2\n      sload\n      dup2\n      0xffffffffffffffffffffffffffffffffffffffff\n      mul\n      not\n      and\n      swap1\n      dup4\n      0xffffffffffffffffffffffffffffffffffffffff\n      and\n      mul\n      or\n      swap1\n      sstore\n      pop\n      pop\n        /* \"expensesplit.sol\":625:827  function addToUsers(address add) private{\r... */\n    tag_46:\n      pop\n      jump\t// out\n\n    auxdata: 0xa265627a7a7231582094a38f4be661e5cebcdf3336f5798be3e56b3242fc6a7d52f9f5fbdb1a457a4e64736f6c63430005110032\n}\n",
				"bytecode": {
					"linkReferences": {},
					"object": "608060405234801561001057600080fd5b506106d0806100206000396000f3fe608060405234801561001057600080fd5b50600436106100615760003560e01c8062ce8e3e14610066578063365b98b2146100c55780634ac1c33d14610133578063713584a6146101b1578063ada187c41461022f578063fe95a26814610280575b600080fd5b61006e6102f1565b6040518080602001828103825283818151815260200191508051906020019060200280838360005b838110156100b1578082015181840152602081019050610096565b505050509050019250505060405180910390f35b6100f1600480360360208110156100db57600080fd5b81019080803590602001909291905050506103cc565b604051808273ffffffffffffffffffffffffffffffffffffffff1673ffffffffffffffffffffffffffffffffffffffff16815260200191505060405180910390f35b6101956004803603604081101561014957600080fd5b81019080803573ffffffffffffffffffffffffffffffffffffffff169060200190929190803573ffffffffffffffffffffffffffffffffffffffff169060200190929190505050610408565b604051808260030b60030b815260200191505060405180910390f35b610213600480360360408110156101c757600080fd5b81019080803573ffffffffffffffffffffffffffffffffffffffff169060200190929190803573ffffffffffffffffffffffffffffffffffffffff169060200190929190505050610437565b604051808260030b60030b815260200191505060405180910390f35b61027e6004803603604081101561024557600080fd5b81019080803573ffffffffffffffffffffffffffffffffffffffff169060200190929190803560030b90602001909291905050506104ca565b005b6102ef6004803603606081101561029657600080fd5b81019080803573ffffffffffffffffffffffffffffffffffffffff169060200190929190803573ffffffffffffffffffffffffffffffffffffffff169060200190929190803560030b90602001909291905050506104d9565b005b60606001805490506040519080825280602002602001820160405280156103275781602001602082028038833980820191505090505b50905060008090505b6001805490508110156103c8576001818154811061034a57fe5b9060005260206000200160009054906101000a900473ffffffffffffffffffffffffffffffffffffffff1682828151811061038157fe5b602002602001019073ffffffffffffffffffffffffffffffffffffffff16908173ffffffffffffffffffffffffffffffffffffffff16815250508080600101915050610330565b5090565b600181815481106103d957fe5b906000526020600020016000915054906101000a900473ffffffffffffffffffffffffffffffffffffffff1681565b60006020528160005260406000206020528060005260406000206000915091509054906101000a900460030b81565b60008060008473ffffffffffffffffffffffffffffffffffffffff1673ffffffffffffffffffffffffffffffffffffffff16815260200190815260200160002060008373ffffffffffffffffffffffffffffffffffffffff1673ffffffffffffffffffffffffffffffffffffffff16815260200190815260200160002060009054906101000a900460030b905092915050565b6104d53383836104d9565b5050565b806000808573ffffffffffffffffffffffffffffffffffffffff1673ffffffffffffffffffffffffffffffffffffffff16815260200190815260200160002060008473ffffffffffffffffffffffffffffffffffffffff1673ffffffffffffffffffffffffffffffffffffffff16815260200190815260200160002060008282829054906101000a900460030b0192506101000a81548163ffffffff021916908360030b63ffffffff1602179055506105918261059f565b61059a8361059f565b505050565b60008090505b600180549050811015610630578173ffffffffffffffffffffffffffffffffffffffff16600182815481106105d657fe5b9060005260206000200160009054906101000a900473ffffffffffffffffffffffffffffffffffffffff1673ffffffffffffffffffffffffffffffffffffffff1614156106235750610698565b80806001019150506105a5565b5060018190806001815401808255809150509060018203906000526020600020016000909192909190916101000a81548173ffffffffffffffffffffffffffffffffffffffff021916908373ffffffffffffffffffffffffffffffffffffffff160217905550505b5056fea265627a7a7231582094a38f4be661e5cebcdf3336f5798be3e56b3242fc6a7d52f9f5fbdb1a457a4e64736f6c63430005110032",
					"opcodes": "PUSH1 0x80 PUSH1 0x40 MSTORE CALLVALUE DUP1 ISZERO PUSH2 0x10 JUMPI PUSH1 0x0 DUP1 REVERT JUMPDEST POP PUSH2 0x6D0 DUP1 PUSH2 0x20 PUSH1 0x0 CODECOPY PUSH1 0x0 RETURN INVALID PUSH1 0x80 PUSH1 0x40 MSTORE CALLVALUE DUP1 ISZERO PUSH2 0x10 JUMPI PUSH1 0x0 DUP1 REVERT JUMPDEST POP PUSH1 0x4 CALLDATASIZE LT PUSH2 0x61 JUMPI PUSH1 0x0 CALLDATALOAD PUSH1 0xE0 SHR DUP1 PUSH3 0xCE8E3E EQ PUSH2 0x66 JUMPI DUP1 PUSH4 0x365B98B2 EQ PUSH2 0xC5 JUMPI DUP1 PUSH4 0x4AC1C33D EQ PUSH2 0x133 JUMPI DUP1 PUSH4 0x713584A6 EQ PUSH2 0x1B1 JUMPI DUP1 PUSH4 0xADA187C4 EQ PUSH2 0x22F JUMPI DUP1 PUSH4 0xFE95A268 EQ PUSH2 0x280 JUMPI JUMPDEST PUSH1 0x0 DUP1 REVERT JUMPDEST PUSH2 0x6E PUSH2 0x2F1 JUMP JUMPDEST PUSH1 0x40 MLOAD DUP1 DUP1 PUSH1 0x20 ADD DUP3 DUP2 SUB DUP3 MSTORE DUP4 DUP2 DUP2 MLOAD DUP2 MSTORE PUSH1 0x20 ADD SWAP2 POP DUP1 MLOAD SWAP1 PUSH1 0x20 ADD SWAP1 PUSH1 0x20 MUL DUP1 DUP4 DUP4 PUSH1 0x0 JUMPDEST DUP4 DUP2 LT ISZERO PUSH2 0xB1 JUMPI DUP1 DUP3 ADD MLOAD DUP2 DUP5 ADD MSTORE PUSH1 0x20 DUP2 ADD SWAP1 POP PUSH2 0x96 JUMP JUMPDEST POP POP POP POP SWAP1 POP ADD SWAP3 POP POP POP PUSH1 0x40 MLOAD DUP1 SWAP2 SUB SWAP1 RETURN JUMPDEST PUSH2 0xF1 PUSH1 0x4 DUP1 CALLDATASIZE SUB PUSH1 0x20 DUP2 LT ISZERO PUSH2 0xDB JUMPI PUSH1 0x0 DUP1 REVERT JUMPDEST DUP2 ADD SWAP1 DUP1 DUP1 CALLDATALOAD SWAP1 PUSH1 0x20 ADD SWAP1 SWAP3 SWAP2 SWAP1 POP POP POP PUSH2 0x3CC JUMP JUMPDEST PUSH1 0x40 MLOAD DUP1 DUP3 PUSH20 0xFFFFFFFFFFFFFFFFFFFFFFFFFFFFFFFFFFFFFFFF AND PUSH20 0xFFFFFFFFFFFFFFFFFFFFFFFFFFFFFFFFFFFFFFFF AND DUP2 MSTORE PUSH1 0x20 ADD SWAP2 POP POP PUSH1 0x40 MLOAD DUP1 SWAP2 SUB SWAP1 RETURN JUMPDEST PUSH2 0x195 PUSH1 0x4 DUP1 CALLDATASIZE SUB PUSH1 0x40 DUP2 LT ISZERO PUSH2 0x149 JUMPI PUSH1 0x0 DUP1 REVERT JUMPDEST DUP2 ADD SWAP1 DUP1 DUP1 CALLDATALOAD PUSH20 0xFFFFFFFFFFFFFFFFFFFFFFFFFFFFFFFFFFFFFFFF AND SWAP1 PUSH1 0x20 ADD SWAP1 SWAP3 SWAP2 SWAP1 DUP1 CALLDATALOAD PUSH20 0xFFFFFFFFFFFFFFFFFFFFFFFFFFFFFFFFFFFFFFFF AND SWAP1 PUSH1 0x20 ADD SWAP1 SWAP3 SWAP2 SWAP1 POP POP POP PUSH2 0x408 JUMP JUMPDEST PUSH1 0x40 MLOAD DUP1 DUP3 PUSH1 0x3 SIGNEXTEND PUSH1 0x3 SIGNEXTEND DUP2 MSTORE PUSH1 0x20 ADD SWAP2 POP POP PUSH1 0x40 MLOAD DUP1 SWAP2 SUB SWAP1 RETURN JUMPDEST PUSH2 0x213 PUSH1 0x4 DUP1 CALLDATASIZE SUB PUSH1 0x40 DUP2 LT ISZERO PUSH2 0x1C7 JUMPI PUSH1 0x0 DUP1 REVERT JUMPDEST DUP2 ADD SWAP1 DUP1 DUP1 CALLDATALOAD PUSH20 0xFFFFFFFFFFFFFFFFFFFFFFFFFFFFFFFFFFFFFFFF AND SWAP1 PUSH1 0x20 ADD SWAP1 SWAP3 SWAP2 SWAP1 DUP1 CALLDATALOAD PUSH20 0xFFFFFFFFFFFFFFFFFFFFFFFFFFFFFFFFFFFFFFFF AND SWAP1 PUSH1 0x20 ADD SWAP1 SWAP3 SWAP2 SWAP1 POP POP POP PUSH2 0x437 JUMP JUMPDEST PUSH1 0x40 MLOAD DUP1 DUP3 PUSH1 0x3 SIGNEXTEND PUSH1 0x3 SIGNEXTEND DUP2 MSTORE PUSH1 0x20 ADD SWAP2 POP POP PUSH1 0x40 MLOAD DUP1 SWAP2 SUB SWAP1 RETURN JUMPDEST PUSH2 0x27E PUSH1 0x4 DUP1 CALLDATASIZE SUB PUSH1 0x40 DUP2 LT ISZERO PUSH2 0x245 JUMPI PUSH1 0x0 DUP1 REVERT JUMPDEST DUP2 ADD SWAP1 DUP1 DUP1 CALLDATALOAD PUSH20 0xFFFFFFFFFFFFFFFFFFFFFFFFFFFFFFFFFFFFFFFF AND SWAP1 PUSH1 0x20 ADD SWAP1 SWAP3 SWAP2 SWAP1 DUP1 CALLDATALOAD PUSH1 0x3 SIGNEXTEND SWAP1 PUSH1 0x20 ADD SWAP1 SWAP3 SWAP2 SWAP1 POP POP POP PUSH2 0x4CA JUMP JUMPDEST STOP JUMPDEST PUSH2 0x2EF PUSH1 0x4 DUP1 CALLDATASIZE SUB PUSH1 0x60 DUP2 LT ISZERO PUSH2 0x296 JUMPI PUSH1 0x0 DUP1 REVERT JUMPDEST DUP2 ADD SWAP1 DUP1 DUP1 CALLDATALOAD PUSH20 0xFFFFFFFFFFFFFFFFFFFFFFFFFFFFFFFFFFFFFFFF AND SWAP1 PUSH1 0x20 ADD SWAP1 SWAP3 SWAP2 SWAP1 DUP1 CALLDATALOAD PUSH20 0xFFFFFFFFFFFFFFFFFFFFFFFFFFFFFFFFFFFFFFFF AND SWAP1 PUSH1 0x20 ADD SWAP1 SWAP3 SWAP2 SWAP1 DUP1 CALLDATALOAD PUSH1 0x3 SIGNEXTEND SWAP1 PUSH1 0x20 ADD SWAP1 SWAP3 SWAP2 SWAP1 POP POP POP PUSH2 0x4D9 JUMP JUMPDEST STOP JUMPDEST PUSH1 0x60 PUSH1 0x1 DUP1 SLOAD SWAP1 POP PUSH1 0x40 MLOAD SWAP1 DUP1 DUP3 MSTORE DUP1 PUSH1 0x20 MUL PUSH1 0x20 ADD DUP3 ADD PUSH1 0x40 MSTORE DUP1 ISZERO PUSH2 0x327 JUMPI DUP2 PUSH1 0x20 ADD PUSH1 0x20 DUP3 MUL DUP1 CODESIZE DUP4 CODECOPY DUP1 DUP3 ADD SWAP2 POP POP SWAP1 POP JUMPDEST POP SWAP1 POP PUSH1 0x0 DUP1 SWAP1 POP JUMPDEST PUSH1 0x1 DUP1 SLOAD SWAP1 POP DUP2 LT ISZERO PUSH2 0x3C8 JUMPI PUSH1 0x1 DUP2 DUP2 SLOAD DUP2 LT PUSH2 0x34A JUMPI INVALID JUMPDEST SWAP1 PUSH1 0x0 MSTORE PUSH1 0x20 PUSH1 0x0 KECCAK256 ADD PUSH1 0x0 SWAP1 SLOAD SWAP1 PUSH2 0x100 EXP SWAP1 DIV PUSH20 0xFFFFFFFFFFFFFFFFFFFFFFFFFFFFFFFFFFFFFFFF AND DUP3 DUP3 DUP2 MLOAD DUP2 LT PUSH2 0x381 JUMPI INVALID JUMPDEST PUSH1 0x20 MUL PUSH1 0x20 ADD ADD SWAP1 PUSH20 0xFFFFFFFFFFFFFFFFFFFFFFFFFFFFFFFFFFFFFFFF AND SWAP1 DUP2 PUSH20 0xFFFFFFFFFFFFFFFFFFFFFFFFFFFFFFFFFFFFFFFF AND DUP2 MSTORE POP POP DUP1 DUP1 PUSH1 0x1 ADD SWAP2 POP POP PUSH2 0x330 JUMP JUMPDEST POP SWAP1 JUMP JUMPDEST PUSH1 0x1 DUP2 DUP2 SLOAD DUP2 LT PUSH2 0x3D9 JUMPI INVALID JUMPDEST SWAP1 PUSH1 0x0 MSTORE PUSH1 0x20 PUSH1 0x0 KECCAK256 ADD PUSH1 0x0 SWAP2 POP SLOAD SWAP1 PUSH2 0x100 EXP SWAP1 DIV PUSH20 0xFFFFFFFFFFFFFFFFFFFFFFFFFFFFFFFFFFFFFFFF AND DUP2 JUMP JUMPDEST PUSH1 0x0 PUSH1 0x20 MSTORE DUP2 PUSH1 0x0 MSTORE PUSH1 0x40 PUSH1 0x0 KECCAK256 PUSH1 0x20 MSTORE DUP1 PUSH1 0x0 MSTORE PUSH1 0x40 PUSH1 0x0 KECCAK256 PUSH1 0x0 SWAP2 POP SWAP2 POP SWAP1 SLOAD SWAP1 PUSH2 0x100 EXP SWAP1 DIV PUSH1 0x3 SIGNEXTEND DUP2 JUMP JUMPDEST PUSH1 0x0 DUP1 PUSH1 0x0 DUP5 PUSH20 0xFFFFFFFFFFFFFFFFFFFFFFFFFFFFFFFFFFFFFFFF AND PUSH20 0xFFFFFFFFFFFFFFFFFFFFFFFFFFFFFFFFFFFFFFFF AND DUP2 MSTORE PUSH1 0x20 ADD SWAP1 DUP2 MSTORE PUSH1 0x20 ADD PUSH1 0x0 KECCAK256 PUSH1 0x0 DUP4 PUSH20 0xFFFFFFFFFFFFFFFFFFFFFFFFFFFFFFFFFFFFFFFF AND PUSH20 0xFFFFFFFFFFFFFFFFFFFFFFFFFFFFFFFFFFFFFFFF AND DUP2 MSTORE PUSH1 0x20 ADD SWAP1 DUP2 MSTORE PUSH1 0x20 ADD PUSH1 0x0 KECCAK256 PUSH1 0x0 SWAP1 SLOAD SWAP1 PUSH2 0x100 EXP SWAP1 DIV PUSH1 0x3 SIGNEXTEND SWAP1 POP SWAP3 SWAP2 POP POP JUMP JUMPDEST PUSH2 0x4D5 CALLER DUP4 DUP4 PUSH2 0x4D9 JUMP JUMPDEST POP POP JUMP JUMPDEST DUP1 PUSH1 0x0 DUP1 DUP6 PUSH20 0xFFFFFFFFFFFFFFFFFFFFFFFFFFFFFFFFFFFFFFFF AND PUSH20 0xFFFFFFFFFFFFFFFFFFFFFFFFFFFFFFFFFFFFFFFF AND DUP2 MSTORE PUSH1 0x20 ADD SWAP1 DUP2 MSTORE PUSH1 0x20 ADD PUSH1 0x0 KECCAK256 PUSH1 0x0 DUP5 PUSH20 0xFFFFFFFFFFFFFFFFFFFFFFFFFFFFFFFFFFFFFFFF AND PUSH20 0xFFFFFFFFFFFFFFFFFFFFFFFFFFFFFFFFFFFFFFFF AND DUP2 MSTORE PUSH1 0x20 ADD SWAP1 DUP2 MSTORE PUSH1 0x20 ADD PUSH1 0x0 KECCAK256 PUSH1 0x0 DUP3 DUP3 DUP3 SWAP1 SLOAD SWAP1 PUSH2 0x100 EXP SWAP1 DIV PUSH1 0x3 SIGNEXTEND ADD SWAP3 POP PUSH2 0x100 EXP DUP2 SLOAD DUP2 PUSH4 0xFFFFFFFF MUL NOT AND SWAP1 DUP4 PUSH1 0x3 SIGNEXTEND PUSH4 0xFFFFFFFF AND MUL OR SWAP1 SSTORE POP PUSH2 0x591 DUP3 PUSH2 0x59F JUMP JUMPDEST PUSH2 0x59A DUP4 PUSH2 0x59F JUMP JUMPDEST POP POP POP JUMP JUMPDEST PUSH1 0x0 DUP1 SWAP1 POP JUMPDEST PUSH1 0x1 DUP1 SLOAD SWAP1 POP DUP2 LT ISZERO PUSH2 0x630 JUMPI DUP2 PUSH20 0xFFFFFFFFFFFFFFFFFFFFFFFFFFFFFFFFFFFFFFFF AND PUSH1 0x1 DUP3 DUP2 SLOAD DUP2 LT PUSH2 0x5D6 JUMPI INVALID JUMPDEST SWAP1 PUSH1 0x0 MSTORE PUSH1 0x20 PUSH1 0x0 KECCAK256 ADD PUSH1 0x0 SWAP1 SLOAD SWAP1 PUSH2 0x100 EXP SWAP1 DIV PUSH20 0xFFFFFFFFFFFFFFFFFFFFFFFFFFFFFFFFFFFFFFFF AND PUSH20 0xFFFFFFFFFFFFFFFFFFFFFFFFFFFFFFFFFFFFFFFF AND EQ ISZERO PUSH2 0x623 JUMPI POP PUSH2 0x698 JUMP JUMPDEST DUP1 DUP1 PUSH1 0x1 ADD SWAP2 POP POP PUSH2 0x5A5 JUMP JUMPDEST POP PUSH1 0x1 DUP2 SWAP1 DUP1 PUSH1 0x1 DUP2 SLOAD ADD DUP1 DUP3 SSTORE DUP1 SWAP2 POP POP SWAP1 PUSH1 0x1 DUP3 SUB SWAP1 PUSH1 0x0 MSTORE PUSH1 0x20 PUSH1 0x0 KECCAK256 ADD PUSH1 0x0 SWAP1 SWAP2 SWAP3 SWAP1 SWAP2 SWAP1 SWAP2 PUSH2 0x100 EXP DUP2 SLOAD DUP2 PUSH20 0xFFFFFFFFFFFFFFFFFFFFFFFFFFFFFFFFFFFFFFFF MUL NOT AND SWAP1 DUP4 PUSH20 0xFFFFFFFFFFFFFFFFFFFFFFFFFFFFFFFFFFFFFFFF AND MUL OR SWAP1 SSTORE POP POP JUMPDEST POP JUMP INVALID LOG2 PUSH6 0x627A7A723158 KECCAK256 SWAP5 LOG3 DUP16 0x4B 0xE6 PUSH2 0xE5CE 0xBC 0xDF CALLER CALLDATASIZE CREATE2 PUSH26 0x8BE3E56B3242FC6A7D52F9F5FBDB1A457A4E64736F6C63430005 GT STOP ORIGIN "
				},
				"gasEstimates": {
					"creation": {
						"codeDepositCost": "348800",
						"executionCost": "386",
						"totalCost": "349186"
					},
					"external": {
						"addDebt(address,address,int32)": "infinite",
						"add_IOU(address,int32)": "infinite",
						"debts(address,address)": "1338",
						"getUsers()": "infinite",
						"lookup(address,address)": "1419",
						"users(uint256)": "2017"
					},
					"internal": {
						"addToUsers(address)": "infinite"
					}
				},
				"methodIdentifiers": {
					"addDebt(address,address,int32)": "fe95a268",
					"add_IOU(address,int32)": "ada187c4",
					"debts(address,address)": "4ac1c33d",
					"getUsers()": "00ce8e3e",
					"lookup(address,address)": "713584a6",
					"users(uint256)": "365b98b2"
				}
			},
			"storageLayout": {
				"storage": [
					{
						"astId": 7,
						"contract": "expensesplit.sol:Splitwise",
						"label": "debts",
						"offset": 0,
						"slot": "0",
						"type": "t_mapping(t_address,t_mapping(t_address,t_int32))"
					},
					{
						"astId": 10,
						"contract": "expensesplit.sol:Splitwise",
						"label": "users",
						"offset": 0,
						"slot": "1",
						"type": "t_array(t_address)dyn_storage"
					}
				],
				"types": {
					"t_address": {
						"encoding": "inplace",
						"label": "address",
						"numberOfBytes": "20"
					},
					"t_array(t_address)dyn_storage": {
						"base": "t_address",
						"encoding": "dynamic_array",
						"label": "address[]",
						"numberOfBytes": "32"
					},
					"t_int32": {
						"encoding": "inplace",
						"label": "int32",
						"numberOfBytes": "4"
					},
					"t_mapping(t_address,t_int32)": {
						"encoding": "mapping",
						"key": "t_address",
						"label": "mapping(address => int32)",
						"numberOfBytes": "32",
						"value": "t_int32"
					},
					"t_mapping(t_address,t_mapping(t_address,t_int32))": {
						"encoding": "mapping",
						"key": "t_address",
						"label": "mapping(address => mapping(address => int32))",
						"numberOfBytes": "32",
						"value": "t_mapping(t_address,t_int32)"
					}
				}
			},
			"userdoc": {
				"methods": {}
			}
		}
	}
}